:100000000C9434000C9451000C9451000C94510049
:100010000C9451000C9451000C9451000C9451001C
:100020000C9451000C9451000C9451000C9451000C
:100030000C9451000C9451000C9451000C945100FC
:100040000C9451000C9451000C9451000C945100EC
:100050000C9451000C94A5000C9451000C94510088
:100060000C9451000C94510011241FBECFEFD8E026
:10007000DEBFCDBF11E0A0E0B1E0EEE8F3E002C0EA
:1000800005900D92A430B107D9F725E0A4E0B1E0C6
:1000900001C01D92A930B207E1F70E94A9010C949A
:1000A000C5010C940000EAE7F0E080818F7780833F
:1000B00080818F7B8083ACE7B0E08C918F778C93CD
:1000C0008C9180648C938C9180628C938C918C93B6
:1000D00080818062808380818860808380818B7F43
:1000E000808380818260808380818E7F8083EBE744
:1000F000F0E080818F7B808380818B7F8083808113
:100100008D7F808380818E7F80830895EAE7F0E091
:100110008081806880838081806480830895EAE79D
:10012000F0E080818F77808380818F7B808308954A
:1001300080B78F7780BF80B78F7B80BF80B7877F86
:1001400080BF80B78B7F80BF08951F920F920FB63C
:100150000F9211242F933F938F939F93EF93FF93CD
:10016000E0910705F091080580917900E95FFE4F65
:10017000808380910601882329F0109206018FEF79
:100180009FEF22C020910705309108058091010161
:10019000909102012817390721F481E0809306012C
:1001A00017C080910001811113C000B605FE10C078
:1001B000809101019091020197FF0AC0809107058B
:1001C000909108059E5F93709093020180930101C6
:1001D000809107059091080501969370909308050A
:1001E00080930705809104019091050101969093F9
:1001F00005018093040180910001880F8093000124
:1002000080B7909100018072890F80930001FF9167
:10021000EF919F918F913F912F910F900FBE0F9073
:100220001F9018951092C50080E18093C400E0EC07
:10023000F0E080818260808386E08093C20088E164
:100240008093C10008959091C00095FFFCCF8093EA
:10025000C60008958091C00087FFFCCF8091C60042
:100260000895539AE0EBF0E0808180628083808182
:1002700081608083E1EBF0E080818460808380E8AE
:100280008093B40008950F931F93CF93DF93109240
:1002900005011092040180910601811107C080912F
:1002A00004019091050181159440A8F30E948F00EC
:1002B000C0E0D0E000E014E08091070590910805CF
:1002C0009801281B390BC217D30768F4E091070582
:1002D000F0910805EC0FFD1FE95FFE4F80810E9441
:1002E00023012196E9CFC7E0D1E0209107053091A5
:1002F0000805CE01875091408217930720F4899119
:100300000E942301F2CFDF91CF911F910F910C94A6
:100310008600CF930E942A01C82F0E942A01C05351
:10032000482F50E0405351098AE0849F9001859FF7
:10033000300D1124922F84E6C89F900D1124C92FEF
:100340000E942A018C0F20ED280F2093B400CF913A
:1003500008950E94120178940E9453000E94980010
:100360000E9431010E9486000E942A01823739F0E2
:10037000843741F08037C1F70E942301F5CF0E94F6
:0E0380004301F2CF0E948901EFCFF894FFCF26
:04038E00FFFFFF006E
:00000001FF
